:100000008A110B20FFFFFFFFFE00030EF0000A081D
:10001000F1008A1175218A1167210F3DF200103D10
:10002000F300013D8A1120318A1172085A2D7304A0
:10003000031D2420073DF200103DF300013D8A110D
:1000400020318A1172082520923D831603139000F7
:100050000F088F2C60388F00553D03179F00C63D59
:100060009F008A1157318A118A1147318A11203D28
:100070001417F200443DF300013D8A11B7308A1194
:100080000000203DF200443DF300023D8A11B730EC
:100090008A110000203DF200443DF300033D8A1127
:1000A000B7308A110000203DF200443DF300043DCA
:1000B0008A11B7308A110000203DF200443DF30060
:1000C000203D8A11B7308A11203DF200203D8A116F
:1000D000FD308A11831214130B178B136E20FF3C13
:1000E000FF3CFF3CFF3CFF3CFF3CFF3CFF3C003C37
:1000F000FF3CFF3CFF3CFF3CFF3CFF3CFF3CFF3C28
:10010000FF3CFF3CFF3CFF3CFF3CFF3CFF3CFF3C17
:10011000FF3CFF3CFF3CFF3CFF3CFF3CAA3CFF3C5C
:10012000FF3CFF3CFF3C0F3C1E3C2D3C3C3C4B3C11
:100130005A3C693C783C873C963CA53CB43CC33C6B
:10014000D23CE13CF03CFF3CFF3CFF3CFF3CFF3C31
:10015000FF3CFF3CFF3CFF3CFF3CFF3CFF3CFF3CC7
:10016000FF3CFF3C553CFF3CFF3CFF3CFF3CF500A7
:10017000443D83160313930003171F0C032C03192C
:10018000C62083120313130813081308F40175081B
:1001900074020318E520043D74020318E520730877
:1001A000840083130008831203139300F30AF40AF4
:1001B000C720831603139319E5207208F5308A11BE
:1001C0007308840000089300F30A053D7502031CC0
:1001D000F120D92083160313131DF1207208F53086
:1001E0008A11F50803190800EA2084008312130815
:1001F00083138000F20AF5030800F500831203134D
:100200000C12831698167508F600F60803191921C2
:100210008316981C08217208F3007608F30275080B
:100220007307F40084008313000883129900F60317
:10023000052183120C1E19210C1283169812080036
:10024000F400720803178D0073088F00741C2C21B2
:10025000831603178C172F21831603178C130C1486
:1002600083120E08F300F2010C08F20408007E0865
:100270008A007F08820037318A118000840A0408CE
:100280007D060319003CFF0A0319FE0A3B210517EE
:10029000051685160614831605168516051706100D
:1002A0009401013D83129400413D940008008312A3
:1002B0000313861606178316861206179A010C3D3D
:1002C0009900243D9800803D831298000800683D05
:1002D0008313FD00003DFE006F3DFF00203D8400C4
:1002E0008A113B3183018A110D20000071088A00B8
:1002F000700E8300FE0E7E0E0900FFFFFFFFFFFF62
:00000001FF
