:040000008A11982F9A
:100F300083018A11BF2F0F30F0001030F100013013
:100F4000A8278A117008F3005A3A031901340034B3
:100F5000F200700803178D0071088F00721CB42F07
:100F6000831603178C17B72F831603178C130C14D3
:100F700083120E08F100F0010C08F00408008A1139
:100F80009B278A11003A0319CF2F0730F000103049
:100F9000F10001308A11A8278A117008D02F9230F1
:100FA0008316031390009F17831203171F14031354
:100FB0001F08C33928389F008A119B278A11003ADD
:100FC0000319EC2F0D30F0001030F10001308A11C0
:100FD000A8278A117008ED2F2A309900F930F40003
:100FE0006400F40BF02FF42F640000000000803048
:100FF000831603138500831203178509FF2FFB2F28
:00000001FF
