:100000008A110B20FFFFFFFFFE00030EF0000A081D
:10001000F1008A11C6208A1140210F3DF200103DE7
:10002000F300013D8A1109318A1172085A2D7304B7
:10003000031D2420073DF200103DF300013D8A110D
:1000400009318A1172082520923D8316031390000E
:100050000F088F2C60388F00553D03179F00C03D5F
:100060009F008A1130318A11CB01CA01C601C70134
:10007000C401C5018A117B308A1183168C170B17B6
:100080008B17831203134B0B5520CA0A4A08022D03
:10009000831603198C1383124708C5004608C40051
:1000A0002608C7002708C600CB014A08022D031DF9
:1000B000412083168C130317301383120313CA01D4
:1000C0004708C9004608C8004408C8024508031C80
:1000D000C903C9024908A0004808A100203DF20058
:1000E000033D8A11E8308A1183128C1383168C1712
:1000F000031730174120803D831603179E00FF3DF4
:1001000003138514920091000317B001B101B201ED
:10011000B301103DAE00803DAF00F03DB100403D69
:10012000B000831203138C1383168C1383128C106C
:100130008316903D8C1003179E00843D8312031399
:1001400092000800FF3CFF3CFF3CFF3CFF3CFF3CB3
:10015000FF3CFF3C003CFF3CFF3CFF3CFF3CFF3CC6
:10016000FF3CFF3CFF3CFF3CFF3CFF3CFF3CFF3CB7
:10017000FF3CFF3CFF3CFF3CFF3CFF3CFF3CFF3CA7
:10018000FF3CAA3CFF3CFF3CFF3CFF3C83160313B3
:100190008C1FE12083128C1FE12083160317AF1DF3
:1001A000DD203F0883120313A600831603173E08C1
:1001B00083120313A700CB01CB0A7F3D83120313E5
:1001C0008C0071088A00700E8300FE0E7E0E0900FE
:1001D000F5000C12831698167508F600F608031938
:1001E00002218316981CF1207208F3007608F302AE
:1001F00075087307F40084008313000883129900C4
:10020000F603EE2083120C1E02210C1283169812A4
:100210000800F400720803178D0073088F00741C27
:100220001521831603178C171821831603178C13B7
:100230000C1483120E08F300F2010C08F2040800FB
:100240007E088A007F08820020318A118000840A9B
:1002500004087D060319003CFF0A0319FE0A242145
:1002600083120313861606178316861206179A0141
:100270000C3D9900243D9800803D831298000800B1
:10028000443DCB018313FD00003DFE00A23DFF0075
:10029000203D84008A11243183018A110D20FFFF43
:00000001FF
