:100000008A110B20FFFFFFFFFE00030EF0000A081D
:10001000F1008A11CF218A11B5210F3DF200103D68
:10002000F300013D8A117E318A1172085A2D730442
:10003000031D2420073DF200103DF300013D8A110D
:100040007E318A1172082520923D83160313900099
:100050000F088F2C60388F00553D03179F00C63D59
:100060009F008A11A5318A118A11C3318A11203D5E
:10007000F200083DF300503D8A1172308A11EB0006
:10008000EC016C082029840083130008E800443D3B
:100090006B07E9006C086907EA00840068088000C3
:1000A000083DEC0A6C02031C4120203DF200503D4B
:1000B000F3018A1172308A11EB006B08F200443DA3
:1000C000F300083DF400503D8A11C9308A11443DC7
:1000D000F200083D8A115D318A11831295130B17C6
:1000E0008B137120F800F90196010D1095179611E8
:1000F0000D1C7820161C7E209611161095150D10DB
:100100000D1C8020961C98207808F400F50103103F
:10011000F40DF50D1708F600F70175087706031DB5
:10012000932074087606031DC520951196101615A8
:100130000D100D1C99200D100D1C9C20961CA52047
:100140001708F9009511961016157308FA00FA08A9
:100150000319C3200D100D1CAB20961CA72072089C
:10016000F4007A08F40273087407F5008400170895
:10017000831380007A0BBE209515BF209511961031
:10018000FA031615A7200D1CC3200D10951379082E
:100190000800F90096010D1095170D1CCD20161CB6
:1001A000D3209611161095150D100D1CD520961CF8
:1001B000F0207908F500F6010310F50DF60D75082D
:1001C0000129F7007608031801290029F80017080B
:1001D00077067804031D12219610951116150D103F
:1001E0000D1CF0207408FA00FA0803191021730896
:1001F000F5007A08F50274087507F60072087607AC
:10020000F700840083130008970096160D100D1C4C
:100210000721161FF42015191221FA031613F420D2
:100220000D1C10210D1095130800FF3CFF3CFF3CF6
:10023000FF3CFF3CFF3CFF3CFF3C003CFF3CFF3CE5
:10024000FF3CFF3CFF3CFF3CFF3CFF3CFF3CFF3CD6
:10025000FF3CFF3CFF3CFF3CFF3CFF3CFF3CFF3CC6
:10026000FF3CFF3CFF3CFF3CAA3CFF3CFF3CFF3C0B
:10027000FF3C0F3C1E3C2D3C3C3C4B3C5A3C693CFB
:10028000783C873C963CA53CB43CC33CD23CE13C2A
:10029000F03CFF3CFF3CFF3CFF3CFF3CFF3CFF3C95
:1002A000FF3CFF3CFF3CFF3CFF3CFF3CFF3CFF3C76
:1002B000553CFF3CFF3CFF3CFF3CF5000C12831615
:1002C00098167508F600F608031977218316981C0E
:1002D00066217208F3007608F30275087307F400CC
:1002E00084008313000883129900F60363218312AC
:1002F0000C1E77210C12831698120800F400720865
:1003000003178D0073088F00741C8A21831603174E
:100310008C178D21831603178C130C1483120E086F
:10032000F300F2010C08F20408007E088A007F083E
:10033000820095318A118000840A04087D06031921
:10034000003CFF0A0319FE0A992183120313861643
:1003500006178316861206179A010C3D9900243D54
:100360009800803D831298000800683D8313FD00CB
:10037000013DFE00153DFF00203D84008A119931AA
:1003800083018A110D20051485148316C13D0514BF
:10039000851415149514811383129500080000002C
:1003A00071088A00700E8300FE0E7E0E0900FFFFAA
:00000001FF
