:100000008A110B20FFFFFFFFFE00030EF0000A081D
:10001000F1008A119F208A1139210F3DF200103D15
:10002000F300013D8A1102318A1172085A2D7304BE
:10003000031D2420073DF200103DF300013D8A110D
:1000400002318A1172082520923D83160313900015
:100050000F088F2C60388F00553D03179F00C03D5F
:100060009F008A1129318A11CB01CA01C601C7013B
:10007000C401C5018A11E3308A1183160C150B17D0
:100080008B17831203134B0B5520CA0A4A08022D03
:10009000831603190C1183124708C5004608C400D3
:1000A0002608C7002708C600CB014A08022D031DF9
:1000B000412083160C110317201083120313CA0169
:1000C0004708C9004608C8004408C8024508031C80
:1000D000C903C9024908A0004808A100203DF20058
:1000E000033D8A11C2308A1183120C1183160C153C
:1000F000031720144120FF3CFF3CFF3CFF3CFF3C2A
:10010000FF3CFF3CFF3C003CFF3CFF3CFF3CFF3C16
:10011000FF3CFF3CFF3CFF3CFF3CFF3CFF3CFF3C07
:10012000FF3CFF3CFF3CFF3CFF3CFF3CFF3CFF3CF7
:10013000FF3CFF3CAA3CFF3CFF3CFF3CFF3C000077
:10014000831603130C1DBB2083120C1DBB208316CA
:100150000317271CB720290883120313A600831650
:100160000317280883120313A700CB01CB0AFB3D1A
:10017000831203138C0071088A00700E8300FE0E38
:100180007E0E0900F5000C12831698167508F6000D
:10019000F6080319DC208316981CCB207208F300A4
:1001A0007608F30275087307F400840083130008CF
:1001B00083129900F603C82083120C1EDC200C1257
:1001C0008316981208008316FF3D061683129D00C1
:1001D0009C0083160317A001A101A201023DA60005
:1001E000103DA700303DA100013DA0008312031384
:1001F0000C1183160C1183120C1083160C10831231
:1002000090000800F400720803178D0073088F0037
:10021000741C0E21831603178C17112183160317E4
:100220008C130C1483120E08F300F2010C08F20474
:1002300008007E088A007F08820019318A11800038
:10024000840A04087D060319003CFF0A0319FE0A0C
:100250001D218312031386160617831686120617AE
:100260009A010C3D9900243D9800803D831298002E
:100270000800443DCB018313FD00003DFE007B3DA3
:10028000FF00203D84008A111D3183018A110D2059
:00000001FF
