:100000008A11CA24FF1B0C2083137F188317000852
:10001000840A0319FF0A0800003D8A000408840AC4
:100020008207003C413C443C433C203C633C683CF0
:10003000613C6E3C6E3C653C6C3C283C003C6D3C3D
:10004000563C203C283C303C783C003C293C203C41
:100050003D3C203C003C293C0D3C0A3C003CFFFF61
:04097C00F0000C1269
:100980008316981CC0247008831299000C1EC6247C
:100990000C120800B601B701B801B901BA01BB01D8
:1009A000BC01BD01BE01BF01C00183018A11B42594
:1009B0000313861606178316861206179A010C3D36
:1009C0009900263D9800903D8312980008008312FC
:1009D00003130C127108FF00700884008A110230A2
:1009E0008A110038031904258316981CF424710811
:1009F0008312FF00700884008A1102308A11990066
:100A0000F00A0319F10AEA240C1E04250C1208004E
:100A1000A400A60044358A118312031322083C3532
:100A20008A1183120313A60A4F358A11031D0C2560
:100A3000831203132608840083138001A603443520
:100A40008A118312031322083C358A111608831277
:100A50000313A5000A3D2502031C3025073DA50709
:100A6000303DA5072608840025088000A6034F35E1
:100A70008A11031908002125F00070088316031756
:100A800099009F1D08004125210883160317950032
:100A9000831203132008831603179400080083169B
:100AA0000317150814040800AD358A110310750DDD
:100AB000760DFC00FC08031D6225F001F101F20136
:100AC000F3010800AD358A11173D0310F60CF50C43
:100AD000F40CFF29031D65257408F700F117F201D6
:100AE0007008F8007108F9007208FA008E3DFB01E9
:100AF000FC02FC1F88257C08802D8F29031C5D25A6
:100B00000310FB0CFA0CF90CF80CFC0F8025962551
:100B1000183D7C0203185D25FC0803199625031077
:100B2000F80DF90DFA0DFB0DFC038C257708031960
:100B3000A425F809F909FA09FB09F80A0319F90AC1
:100B40000319FA0A0319FB0A7B08F3007A08F2007A
:100B50007908F1007808F00008007008F4007108C6
:100B6000F5007208F60008008A1124378A118A11EC
:100B70003A378A118A11D8348A11003D8A111A37FE
:100B80008A1183120313B301B401B5018A11A93785
:100B90008A11700883120313B3070318B40A71088B
:100BA000B407103DB50A3502031CC6250F3DB30E30
:100BB000B40EB3053408F02CB3040F3DB405013D69
:100BC000F000803DF1008A11E7348A11303D8A112E
:100BD000BE348A11153DF000803DF1008A11E734E2
:100BE0008A11643DA000BB3DA1003E3DA200340837
:100BF000F9003308F8008A1155368A117808A300E5
:100C00007908A4007A08A5008A1165368A1120089F
:100C1000AF002108B0002208B1002F08F000300812
:100C2000F1003108F2008A1154358A117108A100CF
:100C30007008A0000A3DA200373DA3018A110835C3
:100C40008A11373DF000F1018A11E7348A110E3D17
:100C5000F000803DF1008A11E7348A113408A100C8
:100C60003308A000103DA200373DA3018A110835CA
:100C70008A11373DF000003DF1008A11E7348A11F6
:100C80001A3DF000803DF1008A11E7348A11023DDF
:100C9000AE00043DAD00BA3DAC00AC0B4D26AD0B33
:100CA0004D26AE0B4D260400C1257808F0007908CA
:100CB000F1008E3DF201F300F401D2367008F80025
:100CC0007108F9007208FA0008002008FB002108EA
:100CD000FC002208FD0003107C0D7D0DA600A60877
:100CE000031D7626A001A101A20108002308FB0034
:100CF0002408FC002508FD0003107C0D7D0DAB00D1
:100D0000AB08031D8726A001A101A20108002B0842
:100D10007B29A6072208AB002508AB06803DAB0562
:100D2000073DA117A417A501A701A801A901AA00C1
:100D3000201CA126230810378A110318250A031D39
:100D4000A9070310A20CA10CA00C0310A30DA40D65
:100D5000A50DAA0B9826093DAA00201CB62623083B
:100D600010378A110318250A031DA9070310A20CC6
:100D7000A10CA00C0310A90CA80CA70CAA0BAD2663
:100D80002708F0002808F1002908F2002608F300DF
:100D90002B08F400D2367008A0007108A100720878
:100DA000A200080073080319DA267208710470049F
:100DB000031DE326F001F101F2010800F30A03101C
:100DC000F20CF10CF00CFE3D72050319F226DE2642
:100DD000F30AF00A0319F10A0319F20A0310F20CDC
:100DE000F10CF00CFF3D72050319FC26E826F30315
:100DF0000310F00DF10DF20DF11FF726731CF11326
:100E00000310F30C7308F700F601F5017508F00400
:100E10007608F1047708F2047408031DF21708003D
:100E2000A707240803110318240A031DA80725088F
:100E300003110800F800F700F70DF70D1F087706FB
:100E4000C32C77069F00A927F1378A11002D0319BB
:100E50003027073DFC378A11DA378A1170083127AD
:100E6000923D831603139000553D03179F00F93DF3
:100E70009F0508008312903D0313B60183169F005F
:100E8000C03D831203179C00803D9800A53D0313CD
:100E90009F00F1378A11002D031956270D3DFC37AD
:100EA0008A11DA378A1170083F2C57272A3D99009A
:100EB000831603131C16A9378A117108FB007008EA
:100EC000FA00831603131C12A9378A117108F9005E
:100ED0007008F800003D7B02413D03197A02403D55
:100EE000031C7627FA02031CFB037E27F7007A080F
:100EF0007702FA007B0903180129FB00003D790203
:100F0000413D03197802403D031C8A27F802031C67
:100F1000F9039227F70078087702F8007909031897
:100F20000129F90079087B02031D982778087A02C5
:100F300003189D27831603131C16A9377108FB009D
:100F40007008FA00C02983120313B6000317980132
:100F50000800831203139F140000831203139F18C9
:100F6000AD271E08F600F50183161E08F50483124E
:100F70003608F200F301F21BF3037608802DF4002B
:100F80007308802D7402031DC72772087502031CA5
:100F9000D527831203133608F200F301F21BF30383
:100FA000F5027308031CF603F6027608F1007508D3
:100FB000F0000800F200700803178D0071088F0020
:100FC000721CE627831603178C17E927831603176D
:100FD0008C130C1483120E08F100F0010C08F004BD
:100FE00008000F3DFC378A11DA378A117008F300C8
:100FF0005A2D0319013C003CF000103DF100013C6A
:00000001FF
